:020000040000FA
:06000000F9EF0BF0120005
:020006001200E6
:08000800C6EF07F01200D9CF8A
:10001000E6FFE1CFD9FF020EE126DE6ADD6A0001CC
:100020008A6B8B6B8C6B8D6B8E6B8F6B2AEC07F0F6
:10003000BBEC07F0E668CAEC0AF0E552970EE66EF4
:1000400094EC0BF0E5526C0EE66E670EE66E78EC03
:100050000BF0E552E552000190699169D08EF08C69
:10006000F086F28AF184F28EF28C0001010E8C1976
:1000700001E18D5121E1000190699169E66AE66A2A
:10008000EEEC06F0E552E5528AC0E6FF8BC0E6FFD3
:10009000EA0E146E170E156E166A14C0E6FF15C030
:1000A000E6FF16C0E6FF77EC08F0176E050EE15E7E
:1000B000175000018C6B8D6B010E8E1901E18F5171
:1000C00058E10001FE0E906F91698AC0DEFF8BC07F
:1000D000DDFF00018A6B8B6BDECFE6FFDDCFE6FF35
:1000E000E00E146E170E156E166A14C0E6FF15C0EA
:1000F000E6FF16C0E6FF77EC08F0176E050EE15E2E
:100100001750000190699169E66AE66AEEEC06F024
:10011000E552E552D90E146E170E156E166A14C00C
:10012000E6FF15C0E6FF16C0E6FF77EC08F0E552E3
:10013000E552E552E66A080EE66EEEEC06F0E55290
:10014000E552DECFE6FFDDCFE6FFD20E146E170ECE
:10015000156E166A14C0E6FF15C0E6FF16C0E6FF6E
:1001600077EC08F0176E050EE15E175000018E6BFC
:100170008F6B7BD7020EE15C02E2E16AE552E16E31
:08018000E552E7CFD9FF1200A0
:08018800010060180000900066
:0601900000000200000067
:0A01960007EC06F0FB0EDBCFF3FFD1
:1001A000DB06F35000090AE055EC06F0FA0EC0EC4D
:1001B00006F0F3E1151CF1E1010E01D0000E36EF5F
:1001C00006F007EC06F03B0EE12402E3E168E6529C
:1001D000E16E010EDB6A020EDB6AF90EDBCFF6FF81
:1001E000FA0EDBCFF7FFFB0EDBCFF8FF0800F55070
:1001F000DF6EDF5002E15AEF05F0250EDF5C02E012
:100200004DEF05F0030EDB6A040EDB6A050EDB6AB8
:10021000060EDB6A070EDB6A6FEC05F02D0EDF5C65
:100220000CE02B0EDF5C09E0200EDF5C06E0230E05
:10023000DF5C03E0300EDF5C1AE1DF50300A14E0CF
:10024000130A0FE0030A0AE00B0A05E0060AE4E1DC
:10025000030EDB80E1D7030EDB82DED7030EDB84E7
:10026000DBD7030EDB86D8D7030EDB88D5D72A0E63
:10027000DF5C1BE16BEC05F0B9EC05F010E0030E60
:10028000DB8008680968130EDBCF0DF0140EDBCF9E
:100290000EF0ADEC09F0040E06C0DBFF03D0130E28
:1002A000A2EC05F06FEC05F00BD0090EDB6A10EC48
:1002B00006F003E084EC06F0FAD7090EA2EC05F094
:1002C000030EDBB0DB982E0EDF5C1BE16FEC05F05C
:1002D0002A0EDF5C0BE16BEC05F0B9EC05F003E1F5
:1002E000130EF4EC05F06FEC05F00BD0090EDB6A91
:1002F00010EC06F003E084EC06F0FAD7090EF4ECFB
:1003000005F0680EDF5C07E16FEC05F0680EDF5C5E
:100310001DE1030E18D0740EDF5C17E07A0EDF5C6F
:1003200014E0480EDF5C06E0540EDF5C03E05A0E7A
:10033000DF5C02E1020E07D06C0EDF5C03E06A0EA8
:10034000DF5C04E1010E47EC06F0C9DBDF506E0A0A
:1003500001E17FD31E0A01E192D1200A01E18FD190
:100360003F0A01E149D11A0A01E146D10D0A01E132
:1003700043D1200A01E140D13A0A01E13DD1200AEE
:1003800001E13AD1260A01E135D10D0A01E132D16C
:100390001A0A01E1D9D0200A4AE0300A1FE0460AD1
:1003A0000EE0250A01E083D3D950F90FE96EFF0E64
:1003B000DA20EA6E010EEE5E000EEE5AEE5A55ECB1
:1003C00006F0250EE66E95DB03E1151C01E169D30D
:1003D00051EC06F001E26BD3DB2A69D3080EDB6A2D
:1003E000040EDB50010806E2040EDB0419EC06F0F3
:1003F000DB508BDB080EDB5009E0030EDB50010BFA
:1004000005E172DB01E04DD3080EDB6A64DBEFCF60
:10041000DFFFC9EC06F003E1151C01E142D351EC0A
:1004200006F001E3DB2A60DB01E141D33AD3070E9A
:10043000DB5002080FE195EC06F0030E5CEC06F0D1
:100440000E0EEECFDBFF0F0EEECFDBFF100EEECF6A
:10045000DBFF20D0F70EDBCF17F0F80EDBCF18F064
:10046000020E175E000E185AF70E17C0DBFFF80ECB
:1004700018C0DBFF17C0E9FF18C0EAFF4CEC06F01C
:10048000166A0E0E14C0DBFF0F0E15C0DBFF100E38
:1004900016C0DBFF0E0EDBCFE6FF0F0EDBCFE6FF55
:1004A000100EDBCFE6FF88EC09F0E552E552E5528D
:1004B000130E07C0DBFF140E08C0DBFF060EDB5077
:1004C00005E0130E90EC06F001E26ADBB4EC06F0F6
:1004D00002E2130E37DB77EC06F006E0040E90EC38
:1004E00006F002E2050E2EDB030EDBB005D0FCDACF
:1004F00001E0D7D2080EDB6A090EDB6A0E0EDBCFF5
:10050000F6FF0F0EDBCFF7FF100EDBCFF8FF080072
:10051000F550DF6EDF5014E0BAEC06F011E2C9ECE2
:1005200006F003E1151C01E1BCD2BBDB01E3DB2AD1
:10053000090EDB2AD9500E0FE96E000ECBDBE7D790
:10054000D3DA01E1B4D2ADD2C6DA110EEECFDBFFC1
:10055000120EEDCFDBFF110EDBCFE6FF120EDBCF6D
:10056000E6FF7AEC09F0E552E552130EF3CFDBFF1C
:10057000140EF4CFDBFF060EDB5004E0130ED0DBCD
:1005800001E20EDBB4EC06F002E2130EDBDAAFDBC5
:1005900005E0040EC5DB02E2050ED4DA030EDBB083
:1005A00005D0A2DA01E07DD2080EDB6A090EDB6A13
:1005B000110EDBCFE9FF120EDBCFEAFFEFCFDFFF3B
:1005C000DF5014E0D7DB12E2E4DB03E1151C01E1AC
:1005D00068D267DB01E3DB2A090EDB2A110EDB2A76
:1005E000DBCFE9FF120EE8E3DB2AE6D77DDA01E193
:1005F0005ED257D2030EDB8E070EDB0410E195DBD3
:10060000040E5ADB0A0EEECFDBFF0B0EEECFDBFF44
:100610000C0EEECFDBFF0D0EEECFDBFF6CD0070E26
:10062000DB5003082CE1030EDBAE0DD0B2DA020E74
:1006300076DAEFCF14F0156A166A176A14AE39D05D
:100640001568166835D0F70EDBCF15F0F80EDBCF46
:1006500016F0020E155E000E165AF70E15C0DBFFDF
:10066000F80E16C0DBFF15C0E9FF16C0EAFFEFCF9A
:1006700014F00A0E14C0DBFF0B0EDB6A38D0070E35
:10068000DB50020809E1030EDBAE04D059DB16AEE5
:1006900010D00ED055DB0DD0030EDBAE12D079DAC0
:1006A000020E3DDAF9DA166A176A15AE02D016683C
:1006B0001768E2DA0C0E16C0DBFF0D0E17C0DBFF69
:1006C0001AD0F70EDBCF16F0F80EDBCF17F0020EC4
:1006D000165E000E175AF70E16C0DBFFF80E17C095
:1006E000DBFF16C0E9FF17C0EAFFD6DAC5DA0C0E49
:1006F000DB6A0D0EDB6A060EDB5005E1010EF36EC0
:10070000050EF3CFDBFF150EDB6A160EDB6AD95040
:10071000370F146E000EDA20156E390E14C0DBFF91
:100720003A0E15C0DBFF380EDB6A080EDB6A0A0ED4
:10073000AEDADF50780A12E0200A10E0280A0CE056
:10074000200A0AE03F0A06E00D0A02E0200A08E15A
:10075000020E05D0080E03D0080EDF26100E97DA21
:10076000030EDBBE02D0DB92DB94DB50800B24E077
:100770008ADAD890030EEB50000A08E6000EEE5C11
:10078000000EEE58000EEE58000EEE5815E213DA89
:100790000B680C680D680E6842EC09F00A0E02C086
:1007A000DBFF0B0E03C0DBFF0C0E04C0DBFF0D0EE6
:1007B00005C0DBFF2D0E08D0030EDBA202D02B0EEE
:1007C00003D0DBA408D0200EF36E170EF3CFDBFFAF
:1007D000150EDB2A02D0170EDB6A050EDB5003E193
:1007E000B7D901E189D0400E146E180E156E000EB7
:1007F000166E070EDBCF17F0186A196A1A6A17C04F
:100800000BF018C00CF019C00DF01AC00EF0D3D9BF
:10081000EFEC0AF014500224F36E15500320F46E2E
:1008200016500420F86EF4CFF7FFF3CFF6FF080060
:10083000090EF5CFDBFF580EDF5C0FE1610EF36EA2
:10084000090E7BD90AE3200E146E090EDBCFE7FFF9
:100850001450E75E090EE7CFDBFF070EDBCF14F085
:10086000156A166A176A0FDA14C00BF015C00CF07F
:1008700016C00DF017C00EF0EECF06F0EECF07F069
:10088000EECF08F0EFCF09F0EFEC0AF009C0EDFF72
:1008900008C0EDFF07C0EDFF06C0EFFF390EDBCF4C
:1008A000E9FFDB063A0EDBCFEAFF01E2DB06090EC9
:1008B000DBCFEFFF150EDB2A4BD995E1030EDBA64C
:1008C0001DD06F0EDF5C06E1C1D918E3150EDB28E1
:1008D0005BDA14D0780EDF5C09E0580EDF5C06E0CE
:1008E000620EDF5C03E0420EDF5C08E1020EF36E95
:1008F000160EF3CFDBFF02D0150EDB6A030EDB50C2
:10090000100B0EE0040EDBCF14F0050EDB50D88088
:10091000145406E2060EDB5003E1040EDB5034DA19
:1009200095D90AE2050EDBCFE7FF150EDB50E75E37
:10093000050EE7CFDBFF02D0050EDB6A040EDBCF2E
:1009400014F0160E45D9D880145414E2160EDBCFDD
:10095000E6FF150EDBCFE6FF040EDBCFE6FF050E4C
:10096000DB50E552E75CE552D880E754E552D88089
:10097000E7545FD9030EDB50010B0BE1080EDB508F
:1009800008E0B2D801E08DD0080EDB50BED8080ECA
:10099000DB6A170EDB5007E088D9170EF1D903E1A7
:1009A000151C01E17ED0160EDB5016E07ED9300E0C
:1009B000E66E9FD802E1151C74E077D9DFCFE6FF21
:1009C000C3EC08F0E552E552E552F4CF15F0000112
:1009D000F31C02E1151C65E0050EDBCF14F0160ECA
:1009E000DB50D880145409E2050EDBCFE7FF160E6A
:1009F000DB50E75E050EE7CFDBFF300EE66E050E3F
:100A0000CBD94FE1390EDB2ADBCFE9FF3A0E01E308
:100A1000DB2ADBCFEAFF090EEFCFDBFFDB500EE076
:100A200044D9090EADD902E1151C3BE0390EDB2A91
:100A3000DBCFE9FF3A0EEDE3DB2AEBD755D831E106
:100A4000160EDBCFE6FF080EC3D8E552E7245DD8CB
:100A50002ED0070EDB50030A1CE0010A14E0030A43
:100A600007E07BD9DBCFEEFF020EDBCFEDFF1FD01F
:100A7000F5D8196A17AE02D0186819682CD8BCD8F6
:100A800019C0EEFF14D0EAD817BE186824D8B4D81D
:100A90000ED063D9DBCFEFFF0AD07BD905E1151C5F
:100AA00003E1F368F46810D0FCD801E3DB2A79D9BC
:100AB000F6EF00F0010EDBCF14F0020EDBCF15F0E5
:100AC00014C0F3FF15C0F4FF3B0EE15C02E2E16AE3
:100AD000E552E16ECBD029D9020E5CEF06F061D968
:100AE0000800F550DF6E1200200EE66E080ECCEF07
:100AF00006F0C3EC08F0E552E552E552F3CF14F0EE
:100B0000F4CF15F00001F31C1200146E156AD950D1
:100B1000010F4DD91450EE261550ED221200185E2B
:100B2000000E195AF70E18C0DBFFF80E19C0DBFFD4
:100B300018C0E9FF19C0EAFF1200DBCFF4FFF35041
:100B4000F45C1200DB50E76E040EE7CFDBFF12000F
:100B50000A0EDBCF14F00B0EDBCF15F00C0EDBCF43
:100B600016F00D0EDBCF17F01450151016101710DD
:100B70001200130EEECFDBFF140EEDCFDBFF130ED2
:100B8000DBCF14F0140EDBCF15F00001800E15142E
:100B90001200F70EDBCF18F0F80EDBCF19F01200C1
:100BA000050EDB50E66ED950130F01D9E552E75020
:100BB000EE6EED6A12000A0EDBCF06F00B0EDBCFF5
:100BC00007F00C0EDBCF08F00D0EDBCF09F01200A2
:100BD000DBCFE6FF150EDBCFE6FF050EDB50E5525F
:100BE000E724E552E7241200DB50CED8010EF36E65
:100BF000060EF3CFDBFF1200EE50EFCFEAFFE96EF7
:100C000016C0EEFF17C0EEFF18C0EEFF1200D9CFDE
:100C1000E6FFDACFE6FFE1CFD9FFE2CFDAFF12003D
:100C2000DFCFE6FFE66AC7EC0BF0E552E552F35082
:100C30001200E76E080EE7CFDBFF1200EECF14F0D4
:100C4000EECF15F0EFCF16F0176A1200050EDBCFCE
:100C500014F0150EDB50D88014541200010EDBCFB7
:100C600016F0020EDBCF17F0186A1200E552E5CF3E
:100C7000DAFFE7CFD9FF12000A0E14C0DBFF0B0E1C
:100C800015C0DBFF1200D9500A0FD7EF06F0F36E44
:100C9000070EF3CFDBFF1200EECF14F0EFCF15F00D
:100CA0001200010EDB2A020E1200FC0EDBCFE6FF63
:100CB000FD0EDBCFE6FF1200145E000E155AF70E94
:100CC00014C0DBFFF80E15C0DBFF14C0E9FF15C030
:100CD000EAFF1200DA20EA6EEF2AEECFF6FF000EEE
:100CE000EF22EECFF7FFEF22EECFF8FF1200040E57
:100CF000DBCFE6FF130EDB50E552E75C9ADFDB50FB
:100D000004DF060EDB501200090EDB500A0DF35013
:100D1000DF24D00FE76E090EE7CFDBFF6FEF05F0A2
:100D2000DB50F36E050E9DEF05F0F70EDBCF14F0F0
:100D3000F80EDBCF15F01200DFCFE6FF79EF05F0FC
:100D400028DF030EECDE1EEF06F0CBEC00F0E552E0
:100D5000E552E552E55200091200BDDEEE50EFCF3C
:100D6000EAFFE96E010E1200130EDB50F36E040E63
:100D70009DEF05F0040EDB50F36E090E9DEF05F0BC
:100D8000DBCFE6FF79EF05F0E76E050EE7CFDBFF7F
:100D900012008BDF9CEF06F0DBCFE6FF86DFA5EFCE
:100DA00006F0D950F90FE96EFF0E6AEF06F0E96E12
:080DB000000EDA20EA6E1200C9
:080DB8000A0EE66E15EC0CF0CA
:100DC000E5521200780EE66ED9EC0BF0E5521200F7
:100DD000280EE66ED9EC0BF0E5521200D9CFE6FFF3
:100DE000E1CFD9FF020EF36EFD0EDBCFF4FFF3501F
:100DF000F45C19E2100EF36EFE0EDBCFF4FFF3503D
:100E0000F45C11E2FD0EDB5008E0FE0EDB50400FFB
:100E1000E66EDAEC09F0E55206D0FE0EDBCFE6FF17
:100E2000DAEC09F0E552E552E7CFD9FF1200D9CF4D
:100E3000E6FFE1CFD9FF59EC0BF0000901E0FBD749
:100E4000FE0EDBCFE6FF55EC0AF0E552E552E7CFA8
:100E5000D9FF1200280EE66E4CEC07F0E55259EC73
:100E60000BF0000901E0FBD7060EE66E7CEC0AF001
:100E7000E55259EC0BF0000901E0FBD70C0EE66ED1
:100E80007CEC0AF0E55259EC0BF0000901E0FBD7CD
:080E9000000190699169120054
:080E9800D9CFE6FFE1CFD9FF3D
:100EA000F00E831695169294929692928994899652
:100EB0008992E2EC06F0300EE66E7CEC0AF0E55228
:100EC000050EE66EB0EC0BF0E552300EE66E7CECF3
:100ED0000AF0E552010EE66EB0EC0BF0E552320E70
:100EE000E66E7CEC0AF0E55259EC0BF0000901E0EB
:100EF000FBD759EC0BF0000901E0FBD7FE0EDBCF6E
:100F0000E6FF7CEC0AF0E55259EC0BF0000901E039
:100F1000FBD7080EE66E7CEC0AF0E55259EC0BF0BC
:100F2000000901E0FBD70F0EE66E7CEC0AF0E552FB
:100F300059EC0BF0000901E0FBD7010EE66E7CECEA
:100F40000AF0E55259EC0BF0000901E0FBD7040E62
:100F5000E66E7CEC0AF0E55259EC0BF0000901E07A
:100F6000FBD7800EE66EDAEC09F0E55200D0E552D0
:060F7000E7CFD9FF1200DB
:0A0F7600190EE66EE66A340EE66E10
:100F800005EC09F0E552E552E5521200DACFE4FF34
:100F9000E2CFDAFFE9CFE4FFEACFE4FFF6CFE4FFE8
:100FA000F7CFE4FFF5CFE4FFF3CFE4FFF4CFE4FFA6
:100FB000FACFE4FF00EE00F0140EE80403E3EECFF6
:100FC000E4FFFBD700EE14F0070EE80403E3EECFD6
:100FD000E4FFFBD7E652F0A008D0F09000018A2B86
:100FE000000E8B23010E8C6F8D6BF2A40DD06C0E56
:100FF000E66E670EE66E78EC0BF0E552E552F29481
:10100000010E00018E6F8F6BE55200EE1AF0070E95
:10101000E80403E3E5CFEDFFFBD700EE13F0140E79
:10102000E80403E3E5CFEDFFFBD7E5CFFAFFE5CF1B
:10103000F4FFE5CFF3FFE5CFF5FFE5CFF7FFE5CF11
:10104000F6FFE5CFEAFFE5CFE9FFE5CFDAFF1100D4
:10105000880EF66E010EF76E000EF86E00010900A4
:10106000F550856F0900F550866F03E1856701D063
:101070003DD00900F550806F0900F550816F0900DF
:10108000F550826F09000900F550E96E0900F5502E
:10109000EA6E090009000900F550836F0900F55058
:1010A000846F09000900F6CF87F0F7CF88F0F8CFFA
:1010B00089F080C0F6FF81C0F7FF82C0F8FF000111
:1010C000835302E1845307E00900F550EE6E830775
:1010D000F8E28407F9D787C0F6FF88C0F7FF89C018
:0E10E000F8FF00018507000E865BBFD71200E7
:0210EE00D9CF58
:1010F000E6FFDACFE6FFE1CFD9FFE2CFDAFFE65233
:10110000E652E652E652D950FB0F146EFF0EDA207B
:10111000156E14C0DEFFDD6EDECFE6FFDDCFE6FF2D
:10112000FB0EDBCFE6FFFC0EDBCFE6FFFD0EDBCFD9
:10113000E6FF90C0E6FF91C0E6FFE1EC00F0146E20
:10114000070EE15C02E2E16AE552E16E1450020E24
:10115000F3CFDBFF030EF4CFDBFF020EDBCF14F087
:10116000030EDBCF15F014C0F3FF15C0F4FF040E1F
:10117000E15C02E2E16AE552E16EE552E5CFDAFFB9
:06118000E7CFD9FF1200C9
:0A118600D9CFE6FFDACFE6FFE1CF94
:10119000D9FFE2CFDAFFFB0EDBCF14F0FC0EDBCF82
:1011A00015F00001800E15141AE1FB0EDBCFE9FFEC
:1011B000FC0EDBCFEAFFEECFF3FFEDCFF4FFEE2A1C
:1011C000000EEF22F3CFE9FFF4CFEAFFFD0EDBCFF5
:1011D000EFFFEF50156AF36E15C0F4FF10D0FB0E51
:1011E000DB50FE0806E1FD0EDBCFE6FF07EC0CF05E
:1011F00005D0FD0EDBCFE6FF17EC07F0E552E55218
:0A120000E5CFDAFFE7CFD9FF1200B7
:06120A00D9CFE6FFDACFA8
:10121000E6FFE1CFD9FFE2CFDAFFAC6AAB6AFD0EA1
:10122000DBB0AC88DBA202D0AC8CAB8CDBB4AC8E78
:10123000DBA602D0AB8801D0AB8ADBA802D0AC849D
:1012400001D0AC949E98DBAC02D09D8A01D09D9ACF
:101250009E9ADBAE02D09D8801D09D98FB0EDB509C
:10126000AF6EAC8AAB8E949C948EAC50100B04E0A5
:10127000AC50800B01E1948CE552E5CFDAFFE7CF6B
:04128000D9FF120080
:0C12840006500B02F3CF02F0F4CF03F091
:101290000C02F3500326000EF420046E06500D02DB
:1012A000F3500426000EF420056E06500E02F35093
:1012B000052607500B02F3500326F4500422000EBB
:1012C000052207500C02F3500426F4500522075063
:1012D0000D02F350052608500B02F3500426F4507B
:1012E000052208500C02F350052609500B02F3505A
:0412F00005261200BD
:0C12F400FE0EE3CFE9FFFF0EE3CFEAFFA0
:10130000F36AF46AEE5203E0F34AF42AFBD71200C0
:10131000FF0EE3CFF8FFE552FF0EE3CFF7FFE552F4
:10132000FF0EE3CFF6FFE552E66AE66AE66A0900D9
:10133000F55209E0FD0EE32A05E1FE0EE32A02E183
:10134000FF0EE32AF4D7FD0EE3CF07F0FE0EE3CF46
:0A13500008F0FF0EE3CF09F01200D1
:06135A0009C013F008C0F9
:1013600012F008500D02F4CF07F0F3CF06F0095049
:101370000E02F4CF09F0F3CF08F00D02F350072668
:10138000F4500822E86A092212500E02F350072690
:10139000F4500822E86A09220EAED3EF09F0125089
:1013A000085E1350095A13AE000C0D50085E0E5023
:0413B000095A000CCA
:0C13B400D9CFE6FFE1CFD9FFF00E95166F
:1013C0008316FE0EDB508009E8380F0B0F0B8312DB
:1013D00089948996DCEC06F08982DCEC06F089922F
:1013E000F00E8316FE0EDB500F0B8312DCEC06F0C2
:1013F0008982DCEC06F089920F0E951200D0E5523E
:06140000E7CFD9FF120046
:0A140600D9CFE6FFE1CFD9FFF00EC9
:1014100095168316FE0EDB504009E8380F0B0F0BB4
:10142000831289948996DCEC06F08982DCEC06F064
:101430008992F00E8316FE0EDB500F0B8312DCEC4C
:1014400006F08982DCEC06F089920F0E951200D02E
:08145000E552E7CFD9FF1200BD
:08145800D9CFE6FFE1CFD9FF77
:10146000FD0EDBCFF6FFFE0EDBCFF7FF0800F550D9
:1014700017E059EC0BF0000901E0FBD7FD0EDBCFC4
:10148000F6FFFE0EDBCFF7FF0800F550E66E55ECD9
:101490000AF0E552FD0EDB2AFE0E01E3DB2AE0D75F
:0A14A00000D0E552E7CFD9FF12009B
:0614AA00D9CFE6FFE1CFFF
:1014B000D9FFF00E95168316FE0EDB380F0B0F0BBF
:1014C000831289868994DCEC06F08982DCEC06F0D4
:1014D0008992F00E8316FE0EDB500F0B8312DCECAC
:1014E00006F08982DCEC06F089920F0E951200D08E
:0814F000E552E7CFD9FF12001D
:0814F800D9CFE6FFE1CFD9FFD7
:10150000F00E95168316FE0EDB380F0B0F0B8312B1
:1015100089948996DCEC06F08982DCEC06F08992ED
:10152000F00E8316FE0EDB500F0B8312DCEC06F080
:101530008982DCEC06F089920F0E951200D0E552FC
:06154000E7CFD9FF120005
:0A154600D9CFE6FFE1CFD9FFFD0E7B
:10155000DBCFE9FFFE0EDBCFEAFFEF5016E059ECE0
:101560000BF0000901E0FBD7FD0EDBCFE9FFFE0E1B
:10157000DBCFEAFFEF50E66E55EC0AF0E552FD0EC8
:10158000DB2AFE0E01E3DB2AE2D700D0E552E7CFEB
:04159000D9FF12006D
:0C159400D9CFE6FFDACFE6FFE1CFD9FFA8
:1015A000E2CFDAFFF090FD0EDBA202D0F18A01D08B
:1015B000F19ADBA002D0F18E01D0F19EDBAC02D01B
:1015C000F18001D0F1909382DBAE02D0F08601D0A1
:0E15D000F096E552E5CFDAFFE7CFD9FF120023
:0215DE00056A9C
:1015E000046A036A026A200EE76ED8900636073650
:1015F0000836093602360336043605360B50025CCF
:101600000C5003580D5004580E50055809E30B5068
:10161000025E0C50035A0D50045A0E50055A062A09
:06162000E72EE4D71200E2
:0A162600D9CFE6FFE1CFD9FFE6526D
:1016300089848986DCEC06F08982DCEC06F083384C
:10164000F00BF00BDF6E8992DCEC06F08982DCECAB
:1016500006F00F0E8314DF12899289968994DF5069
:0C16600000D0E552E552E7CFD9FF1200A0
:04166C00D9CFE6FFED
:10167000E1CFD9FFE65289848996DCEC06F08982B5
:10168000DCEC06F08338F00BF00BDF6E8992DCECBB
:1016900006F08982DCEC06F00F0E8314DF128992CB
:1016A00089947F0EDF1400D0E552E552E7CFD9FFD1
:0216B000120026
:0E16B20089848996DCEC06F08982DCEC06F077
:1016C00083A60BD08992DCEC06F08982DCEC06F074
:1016D00089928994010E0BD00AD08992DCEC06F035
:1016E0008982DCEC06F089928994000E00D0120009
:1016F000D9CFE6FFDACFE6FFE1CFD9FFE2CFDAFFBD
:10170000E652E652FC0EDBCFDEFFDBCFDDFF010E43
:10171000DB50D76EDF50D66EE552E552E552E5CF8D
:08172000DAFFE7CFD9FF120048
:08172800D9CFE6FFDACFE6FF9E
:10173000E1CFD9FFE2CFDAFFFD0EDB507F0BD56E94
:10174000D76AD66AF294FD0EDBAE02D0F28A01D0DF
:10175000F29AD58EE552E5CFDAFFE7CFD9FF120036
:10176000FF0EE3501C6EEF0E01D0F30EE76EE72E76
:10177000B7EF0BF00C0E1B6EE76AE72EBDEF0BF018
:0E1780001B2EBCEF0BF01C2EB5EF0BF0120071
:02178E00F36AFC
:10179000F46AFF0EE124E96EFF0EE220EA6EED66C8
:1017A00007D02F0EEF6404D03A0EEF6001D0F32A79
:0217B000120025
:0E17B200FF0EE3501C6E480E01D04C0EE76E89
:1017C000E72EFED7E76AE72EFED71C2EF7D70000DC
:0217D000120005
:0E17D200543D2564202000543D30202020008E
:1017E0004E203D202564200D0A004E3D256420201A
:0117F00000F8
:0E17F20014EE00F024EE00F0F86A019C28ECE2
:0E18000008F003EC00F007EC00F0FBD712003C
:02180E00FF0ECB
:10181000E350ACBA04D0AF6AAB8EAC8A949CACA255
:0A182000FED7AD6EF36EF46A1200FD
:06182A00FF0EE350E84E42
:101830001200000000D000D000D0E82EFAD712002D
:101840003031323334353637383961626364656636
:011850000097
:0E18520000EE00F00F0EEE6AEA62FDD7120003
:02186000FEFF89
:020000040030CA
:0100010021DD
:0100020006F7
:010003000EEE
:010006008178
:00000001FF
